:020000040800F2
:1000000000280020B90700080908000809080008AE
:100010000908000809080008090800080000000095
:1000200000000000000000000000000009080008B7
:10003000090800080000000009080008150700086A
:10004000090800080908000809080008090800084C
:100050000908000809080008F10200081503000853
:10006000390300085D03000881030008090800083F
:10007000090800080908000809080008090800081C
:10008000090800080908000809080008090800080C
:1000900009080008090800080908000809080008FC
:1000A00009080008090800080908000809080008EC
:1000B00009080008090800080908000809080008DC
:1000C00009080008090800080908000809080008CC
:1000D00009080008090800080908000809080008BC
:1000E00009080008090800080000000009080008C5
:1000F000090800080908000809080008090800089C
:10010000090800080908000809080008090800088B
:10011000090800080908000809080008090800087B
:10012000090800080908000809080008090800086B
:1001300010B5054C237833B9044B13B10448AFF321
:1001400000800123237010BD080000200000000083
:100150006C08000808B5034B1BB103490348AFF313
:10016000008008BD000000000C0000206C080008A2
:1001700080B586B000AF78600023FB750023FB7567
:1001800016E0FA7D7B68043253F82230FB60FA7D7A
:100190007B6833F812303B820423BB740223FB7468
:1001A00007F10C03184600F060F9FB7D0133FB7585
:1001B000FB7D072BE5D90023FB7517E0FA7D7B68F3
:1001C000103253F82230FB60FA7D7B68183233F826
:1001D00012303B820423BB740223FB7407F10C032F
:1001E000184600F042F9FB7D0133FB75FB7D072BC0
:1001F000E4D900BF1837BD4680BD80B584B000AFDC
:10020000786039600023FB730023FB731FE078687C
:1002100000F04DF8FB7B3A6813441B781946786868
:1002200000F019F8FA7B7B68103253F82200FA7B51
:100230007B68183233F812300022194600F0C0F9FA
:1002400040F6C41000F03CFAFB7B0133FB73FB7BF0
:10025000072BDCD9D8E780B584B000AF78600B46B7
:10026000FB700023FB730023BB730023FB7317E0B9
:10027000FA78FB7B42FA03F3DBB203F00103BB73B2
:10028000FA7B7B68043253F82200FA7B7B6833F8F0
:100290001230BA7B194600F093F9FB7B0133FB73F4
:1002A000FB7B072BE4D900BF1037BD4680BD80B56E
:1002B00084B000AF78600023FB730023FB7310E071
:1002C000FA7B7B68103253F82200FA7B7B68183285
:1002D00033F812300122194600F072F9FB7B01332A
:1002E000FB73FB7B072BEBD900BF1037BD4680BDEE
:1002F00080B500AF054B1B689847054B5B69044A06
:1003000043F00103536100BF80BD00BF2400002003
:100310000004014080B500AF054B1B689847054BB2
:100320005B69044A43F00203536100BF80BD00BF14
:10033000280000200004014080B500AF054B1B6879
:100340009847054B5B69044A43F00403536100BFBF
:1003500080BD00BF2C0000200004014080B500AF2C
:10036000054B1B689847054B5B69044A43F008033B
:10037000536100BF80BD00BF300000200004014079
:1003800080B500AF054B1B689847054B5B69044A75
:1003900043F01003536100BF80BD00BF3400002054
:1003A0000004014080B483B000AF0346FB80FB88AB
:1003B000802B42D0802B11DC082B36D0082B06DC9A
:1003C000022B2ED0042B2ED0012B28D047E0202B3F
:1003D0002FD0402B2FD0102B29D040E0B3F5006F49
:1003E00033D0B3F5006F09DCB3F5007F29D0B3F546
:1003F000806F28D0B3F5807F21D030E0B3F5005F67
:1004000027D0B3F5005F03DCB3F5805F1FD026E093
:10041000B3F5804F1FD0B3F5004F1ED01FE000236F
:100420001EE004231CE008231AE00C2318E010232C
:1004300016E0142314E0182312E01C2310E000231C
:100440000EE004230CE008230AE00C2308E010234C
:1004500006E0142304E0182302E01C2300E000233C
:1004600018460C37BD4680BC704790B587B000AFCA
:1004700078600023FB757B689B88BB827B689B79D7
:10048000FB740023FB607B68002B00F09280BB8A2A
:10049000FF2B02D87B681B6802E07B681B68043373
:1004A000FB60BB8A1846FFF77DFF03461A460F2301
:1004B0009340DA43FB681B681A40FB681A60FB7CB8
:1004C000072B08D0FB7C062B05D0FB7C052B02D02C
:1004D000FB7C042B17D1FB7C043B9A007B68DB7907
:1004E00003F00F0342EA0304BB8A1846FFF75AFFE2
:1004F000034604FA03F2FB681B681A43FB681A60A0
:100500000123FB7557E0FB7C012B02D0FB7C002B09
:1005100012D1FB7C9B0003F00F04BB8A1846FFF747
:1005200041FF034604FA03F2FB681B681A43FB68A9
:100530001A600123FB7539E0FB7C082B10D1BB8AC4
:100540001846FFF72FFF03461A46042303FA02F268
:10055000FB681B681A43FB681A600123FB7525E0E2
:10056000BB8A1846FFF71EFF03461A46082303FA04
:1005700002F2FB681B681A43FB681A60FB7C022BC3
:1005800008D17B681B68D968BA8A7B681B680A43F4
:10059000DA6009E07B681B68DA68BB8ADB431946CE
:1005A0007B681B680A40DA600123FB750123FB7539
:1005B00001E00223FB75FB7D18461C37BD4690BD4C
:1005C00080B485B000AF78600B467B8013467B70AB
:1005D0000023FB737B68002B0CD07B78002B03D0AF
:1005E0007A887B681A6102E07A887B685A61012305
:1005F000FB7301E00023FB73FB7B18461437BD46F9
:1006000080BC704780B483B000AF0023FB71114BF6
:100610005B68104A43F0010353600E4B5B680D4A60
:1006200023F0010353600B4B1B680A4A43F48033E9
:10063000136000BF074B1B685B0C03F00103002B2A
:10064000F8D00123FB71FB7918460C37BD4680BCFE
:10065000704700BF0010024080B485B000AF034671
:10066000FB710023FB73FB79002B02D0082B09D010
:1006700011E0124B1B68114A43F00403136001237D
:10068000FB7308E00D4B1B680C4A23F00403136056
:100690000123FB7300BF094B1B68084A43F00203A8
:1006A0001360064B1B68054A23F001031360FB7BB4
:1006B00018461437BD4680BC704700BF10E000E00C
:1006C00080B485B000AF78600123FB73104B00222B
:1006D0009A600F4A7B68013B53600D4B1B680C4AC4
:1006E00043F0010313600A4B1B68094A23F002031D
:1006F000136000BF064B1B681B0C03F00103002BAB
:10070000F8D0FB7B18461437BD4680BC704700BF4D
:1007100010E000E080B500AF0C4B1B6898470C4B15
:100720001B78DBB2002B0ED10A4B00225A60094B1A
:100730001B68084A23F002031360064B1B68054A36
:1007400023F00103136000BF80BD00BF3C00002008
:100750003800002010E000E080B598B000AFFFF74F
:1007600051FF124B9B69114A43F0040393610F4BF5
:100770009B690E4A43F0080393610D4A3B461146BC
:100780006022184600F066F80820FFF765FF3B4638
:100790001846FFF7EDFC3B4606491846FFF72DFDCE
:1007A000002318466037BD4680BD00BF00100240E0
:1007B00084080008000000200D488546AFF3008043
:1007C0000C480D490D4A002302E0D458C4500433AC
:1007D000C4188C42F9D30A4A0A4C002301E0136082
:1007E0000432A242FBD300F011F8FFF7B5FFFEE799
:1007F000002800200000002008000020EC0800086D
:100800000800002040000020FEE7000070B5002531
:100810000C4E0D4CA41BA410A54209D100F026F8E3
:1008200000250A4E0A4CA41BA410A54205D170BD98
:1008300056F8253098470135EEE756F825309847A9
:100840000135F2E7E4080008E4080008E4080008BD
:10085000E808000810B5431E0A44914200D110BDBB
:1008600011F8014B03F8014FF7E70000F8B500BF9E
:10087000F8BC08BC9E467047F8B500BFF8BC08BC81
:040880009E467047D9
:100884000100020004000800100020004000800065
:100894000008014000080140000801400008014030
:1008A4000008014000080140000801400008014020
:1008B400010002002000400080000001000200044A
:1008C400000C0140000C0140000C0140000C0140F0
:1008D400000C0140000C0140000C0140000C0140E0
:0408E40055010008B2
:0408E80031010008D2
:0808EC00007C1212127C0000D6
:04000005080007B92F
:00000001FF
