:020000040800F2
:10000000002800204D0D00089D0D00089D0D0008E2
:100010009D0D00089D0D00089D0D000800000000CA
:100020000000000000000000000000009D0D00081E
:100030009D0D0008000000009D0D0008210B000828
:100040009D0D00089D0D00089D0D00089D0D0008E8
:100050009D0D00089D0D0008D1090008F509000854
:10006000190A00083D0A0008610A0008AD090008E5
:100070009D0D00089D0D00089D0D00089D0D0008B8
:100080009D0D00089D0D00089D0D00089D0D0008A8
:100090009D0D00089D0D00089D0D00089D0D000898
:1000A0009D0D00089D0D00089D0D00089D0D000888
:1000B0009D0D00089D0D00089D0D00089D0D000878
:1000C0009D0D00089D0D00089D0D00089D0D000868
:1000D0009D0D00089D0D00089D0D00089D0D000858
:1000E0009D0D00089D0D0008000000009D0D0008FA
:1000F0009D0D00089D0D00089D0D00089D0D000838
:100100009D0D00089D0D00089D0D00089D0D000827
:100110009D0D00089D0D00089D0D00089D0D000817
:100120009D0D00089D0D00089D0D00089D0D000807
:1001300010B5054C237833B9044B13B10448AFF321
:1001400000800123237010BDD007002000000000B4
:10015000F80D000808B5034B1BB103490348AFF382
:10016000008008BD00000000D4070020F80D000842
:1001700080B485B000AF78600023FB737B68002BF0
:1001800000F01F83A3497B681B785A1E13469B000F
:1001900013449B000B4408331B689E487A6812780E
:1001A000013A23F0010113469B0013449B000344D2
:1001B000083319607B685B78012B1CD0022B33D08D
:1001C000002B4AD193497B681B785A1E13469B002B
:1001D00013449B000B4408331B688E487A681278DE
:1001E000013A43F4804113469B0013449B000344AF
:1001F0000833196031E087497B681B785A1E134623
:100200009B0013449B000B4408331B6881487A68A9
:100210001278013A23F0100113469B0013449B000F
:1002200003440833196018E07A497B681B785A1E2A
:1002300013469B0013449B000B4408331B6875480E
:100240007A681278013A43F0100113469B00134478
:100250009B0003440833196000BF7B685B79012B66
:1002600018D16C497B681B785A1E13469B001344B7
:100270009B000B4408331B6866487A681278013A81
:1002800043F0800113469B0013449B000344083352
:10029000196017E05F497B681B785A1E13469B0064
:1002A00013449B000B4408331B685A487A68127841
:1002B000013A23F0800113469B0013449B00034442
:1002C000083319607B689B79012B18D151497B68F1
:1002D0001B785A1E13469B0013449B000B440833A3
:1002E0001B684C487A681278013A43F04001134683
:1002F0009B0013449B0003440833196017E04549F1
:100300007B681B785A1E13469B0013449B000B44CA
:1003100008331B683F487A681278013A23F040019D
:1003200013469B0013449B000344083319607B6809
:10033000DB79002B1AD0012B31D136497B681B7831
:100340005A1E13469B0013449B000B4408331B6842
:1003500030487A681278013A43F0200113469B0036
:1003600013449B0003440833196018E029497B6853
:100370001B785A1E13469B0013449B000B44083302
:100380001B6824487A681278013A23F0200113464A
:100390009B0013449B0003440833196000BF7B6833
:1003A000DB78012B38D0022B67D0002B40F09680F1
:1003B00018497B681B785A1E13469B0013449B0008
:1003C0000B4408331B6813487A681278013A23F407
:1003D000806113469B0013449B000344083319605B
:1003E0000C497B681B785A1E13469B0013449B00E4
:1003F0000B4408331B6807487A681278013A23F4E3
:10040000006113469B0013449B00034408331960AA
:1004100064E000BF00000240B7497B681B785A1EA9
:1004200013469B0013449B000B4408331B68B248DF
:100430007A681278013A43F4806113469B001344B2
:100440009B00034408331960AB497B681B785A1E34
:1004500013469B0013449B000B4408331B68A648BB
:100460007A681278013A23F4006113469B00134422
:100470009B0003440833196030E09F497B681B7878
:100480005A1E13469B0013449B000B4408331B6801
:1004900099487A681278013A43F4006113469B0048
:1004A00013449B0003440833196093497B681B780D
:1004B0005A1E13469B0013449B000B4408331B68D1
:1004C0008D487A681278013A23F4806113469B00C4
:1004D00013449B0003440833196000BF7B681B79F9
:1004E000012B35D0022B64D0002B40F09380824941
:1004F0007B681B785A1E13469B0013449B000B44D9
:1005000008331B687C487A681278013A23F48071BA
:1005100013469B0013449B0003440833196076493B
:100520007B681B785A1E13469B0013449B000B44A8
:1005300008331B6870487A681278013A23F4007116
:1005400013469B0013449B0003440833196061E089
:1005500069497B681B785A1E13469B0013449B0015
:100560000B4408331B6864487A681278013A43F4F4
:10057000807113469B0013449B00034408331960A9
:100580005D497B681B785A1E13469B0013449B00F1
:100590000B4408331B6858487A681278013A23F4F0
:1005A000007113469B0013449B00034408331960F9
:1005B00030E051497B681B785A1E13469B00134458
:1005C0009B000B4408331B684B487A681278013A49
:1005D00043F4007113469B0013449B00034408330B
:1005E000196045497B681B785A1E13469B001344CB
:1005F0009B000B4408331B683F487A681278013A25
:1006000023F4807113469B0013449B00034408337A
:10061000196000BF7B689B78032B00F2D48001A295
:1006200052F823F03506000897060008FD0600087A
:100630005F07000830497B681B785A1E13469B00F1
:1006400013449B000B4408331B682B487A681278CC
:10065000013A23F4805113469B0013449B0003444A
:100660000833196024497B681B785A1E13469B0087
:1006700013449B000B4408331B681F487A681278A8
:10068000013A23F4005113469B0013449B0003449A
:100690000833196097E018497B681B785A1E134687
:1006A0009B0013449B000B4408331B6812487A6874
:1006B0001278013A43F4805113469B0013449B0087
:1006C0000344083319600C497B681B785A1E134693
:1006D0009B0013449B000B4408331B6806487A6850
:1006E0001278013A23F4005113469B0013449B00F7
:1006F00003440833196066E00000024035497B6816
:100700001B785A1E13469B0013449B000B4408336E
:100710001B6830487A681278013A43F40051134656
:100720009B0013449B0003440833196029497B68EC
:100730001B785A1E13469B0013449B000B4408333E
:100740001B6824487A681278013A23F480511346D2
:100750009B0013449B0003440833196033E01D4998
:100760007B681B785A1E13469B0013449B000B4466
:1007700008331B6817487A681278013A43F400512D
:1007800013469B0013449B0003440833196011492E
:100790007B681B785A1E13469B0013449B000B4436
:1007A00008331B680B487A681278013A43F4805189
:1007B00013469B0013449B0003440833196000BF99
:1007C00001E00223FB73FB7B18461437BD4680BC57
:1007D000704700BF0000024080B584B000AF034600
:1007E000FB710023FB73FB79072B2CD8FB790021CD
:1007F000184600F0BBF8FB790121184600F0B6F866
:10080000FB790221184600F0B1F8FB790321184664
:1008100000F0ACF80F49FB795A1E13469B001344B5
:100820009B000B4408331B680A48FA79013A43F0ED
:10083000010113469B0013449B00034408331960D5
:100840000123FB7301E00323FB73FB7B1846103786
:10085000BD4680BD0000024080B485B000AF0346B5
:100860000A46FB711346BB710023FB73FB79072B10
:100870001CD81249FB795A1E13469B0013449B0057
:100880000B4408331B68BA79012101FA02F21146C0
:100890000A48FA79013A194313469B0013449B0016
:1008A0000344083319600123FB7301E00323FB7346
:1008B000FB7B18461437BD4680BC704700000240E1
:1008C00080B487B000AFB9607A601A460346FB7304
:1008D0001346BB810023FB757B68002B3CD0BB68B3
:1008E000002B39D02049FB7B5A1E13469B00134432
:1008F0009B000B4408331B681B48FA7B013A23F02A
:10090000010113469B0013449B0003440833196004
:100910001548FB7B5A1EB96813469B0013449B0085
:100920000344103319601048FB7B5A1E7968134644
:100930009B0013449B000344143319600A48FB7B5B
:100940005A1EB98913469B0013449B0003440C3381
:1009500019600123FB7501E00223FB75FB7D18463E
:100960001C37BD4680BC70470000024080B483B095
:1009700000AF03460A46FB711346BB71FB793F3358
:10098000DBB29B00FB71084B5B68F979BA790A44CA
:10099000012101FA02F21146034A0B43536000BFE2
:1009A0000C37BD4680BC70470000024080B500AFE8
:1009B00000210120FFF7DAFF01210120FFF7D6FF18
:1009C000024B1B68984700BF80BD00BF0408002091
:1009D00080B500AF054B1B689847054B5B69044A1F
:1009E00043F00103536100BF80BD00BFEC0700204E
:1009F0000004014080B500AF054B1B689847054BCC
:100A00005B69044A43F00203536100BF80BD00BF2D
:100A1000F00700200004014080B500AF054B1B68C3
:100A20009847054B5B69044A43F00403536100BFD8
:100A300080BD00BFF40700200004014080B500AF76
:100A4000054B1B689847054B5B69044A43F0080354
:100A5000536100BF80BD00BFF807002000040140C3
:100A600080B500AF054B1B689847054B5B69044A8E
:100A700043F01003536100BF80BD00BFFC0700209E
:100A80000004014080B485B000AF0346FB71002331
:100A9000FB73FB793B2B10D8FB7903F01F0301227A
:100AA0009A40FB795B09DBB29B0003F1604303F5DD
:100AB00061431A600123FB7301E00023FB73FB7B9E
:100AC00018461437BD4680BC7047000080B483B020
:100AD00000AF0023FB71114B5B68104A43F0010328
:100AE00053600E4B5B680D4A23F0010353600B4BC0
:100AF0001B680A4A43F48033136000BF074B1B682E
:100B00005B0C03F00103002BF8D00123FB71FB7990
:100B100018460C37BD4680BC704700BF001002402D
:100B200080B500AF0C4B1B6898470C4B1B78DBB2B1
:100B3000002B0ED10A4B00225A60094B1B68084A51
:100B400023F002031360064B1B68054A23F00103E0
:100B5000136000BF80BD00BF08080020000800200F
:100B600010E000E080B5ADF5BC5D00AF002307F5F7
:100B7000BB5202F11B021370012307F5BB5202F1B5
:100B800014021370002307F5BB5202F11502137013
:100B9000012307F5BB5202F119021370012307F577
:100BA000BB5202F11A021370022307F5BB5202F185
:100BB00017021370022307F5BB5202F118021370DB
:100BC000032307F5BB5202F11602137007F6A47354
:100BD00018464FF4FA631A46002100F005F907F6AB
:100BE000A47305221A6007F6A47301225A6007F65F
:100BF000A47304229A6007F6A4730522DA6007F64C
:100C0000A47303221A6107F6A47305225A6107F63A
:100C1000A47301229A6107F6A4730422DA6107F62D
:100C2000A47305221A6207F6A47303225A6207F618
:100C3000A47305229A6207F6A4730122DA6207F60A
:100C4000A47304221A6307F6A47305225A6307F6F5
:100C5000A47303229A6307F6A4730122DA6307F6EA
:100C6000A47301221A6407F6A47301225A6407F6DA
:100C7000A47305229A6407F6A4730822DA6407F2C3
:100C8000D47318464FF4FA631A46002100F0ACF80A
:100C900007F120031C3B18464FF4FA631A46002163
:100CA00000F0A2F8FFF712FF264B5B69254A43F0DC
:100CB0000103536107F5BB5303F114031846FFF713
:100CC00057FA0B20FFF7DEFE07F2D47207F6A47185
:100CD0004FF4FA730120FFF7F3FD01210120FFF724
:100CE000BBFD0120FFF778FD002307F5BB5202F1A1
:100CF0001E0213801CE007F5BB5303F11E03198885
:100D000007F5BB5303F11E031A8807F120031C3BB0
:100D100053F821300C4941F8223007F5BB5303F159
:100D20001E031B88013307F5BB5202F11E0213801C
:100D300007F5BB5303F11E031B88B3F5FA7FDAD323
:100D4000FEE700BF00100240000000200D4885466D
:100D5000AFF300800C480D490D4A002302E0D4583F
:100D6000C4500433C4188C42F9D30A4A0A4C0023F5
:100D700001E013600432A242FBD300F011F8FFF748
:100D8000F1FEFEE70028002000000020D007002030
:100D9000180E0008D00700200C080020FEE7000015
:100DA00070B500250C4E0D4CA41BA410A54209D112
:100DB00000F022F800250A4E0A4CA41BA410A542FC
:100DC00005D170BD56F8253098470135EEE756F845
:100DD000253098470135F2E7100E0008100E000884
:100DE000100E0008140E000803460244934200D17E
:100DF000704703F8011BF9E7F8B500BFF8BC08BC61
:100E00009E467047F8B500BFF8BC08BC9E467047C8
:040E10005501000880
:040E140031010008A0
:100E180001000000020000000500000004000000BE
:100E2800080000000900000005000000070000009D
:100E380000000000000000000000000000000000AA
:100E4800000000000000000000000000000000009A
:100E5800000000000000000000000000000000008A
:100E6800000000000000000000000000000000007A
:0400000508000D4D95
:00000001FF
