:020000040800F2
:100000000028002055090008A5090008A5090008D6
:10001000A5090008A5090008A509000800000000BE
:10002000000000000000000000000000A50900081A
:10003000A509000800000000A50900082108000823
:10004000A5090008A5090008A5090008A5090008D8
:10005000A5090008A5090008190400083D040008C6
:100060006104000885040008A9040008C101000813
:10007000A5090008A5090008A5090008A5090008A8
:10008000A5090008A5090008A5090008A509000898
:10009000A5090008A5090008A5090008A509000888
:1000A000A5090008A5090008A5090008A509000878
:1000B000A5090008A5090008A5090008A509000868
:1000C000A5090008A5090008A5090008A509000858
:1000D000A5090008A5090008A5090008A509000848
:1000E000A5090008A509000800000000A5090008EE
:1000F000A5090008A5090008A5090008A509000828
:10010000A5090008A5090008A5090008A509000817
:10011000A5090008A5090008A5090008A509000807
:10012000A5090008A5090008A5090008A5090008F7
:1001300010B5054C237833B9044B13B10448AFF321
:1001400000800123237010BD00000020000000008B
:10015000F009000808B5034B1BB103490348AFF38E
:10016000008008BD0000000004000020F009000825
:10017000034613F8012B002AFBD1181A01387047E7
:1001800080B483B000AF03460A46FB711346BB71CF
:10019000FB793F33DBB29B00FB71084B5B68F9795D
:1001A000BA790A44012101FA02F21146034A0B43CB
:1001B000536000BF0C37BD4680BC70470000024052
:1001C00080B500AF00210120FFF7DAFF01210120F7
:1001D000FFF7D6FF024B1B68984700BF80BD00BFEA
:1001E0003400002080B485B000AF78600023FB733A
:1001F0003F4B9B693E4A43F4805393617B68002BDD
:100200006ED07B681B681A687B681B799B00194657
:100210007B681B680A431A607B689B79022B0CD0B1
:10022000042B13D0012B22D17B681B681A687B68D2
:100230001B6822F400421A6019E07B681B681A6888
:100240007B681B6842F400421A6010E07B681B6800
:100250001A687B681B6822F400421A607B681B687E
:100260001A687B681B6842F480621A6000BF7B6872
:100270001B681A687B685B79DB0019467B681B6822
:100280000A431A607B681B681A687B68DB79DB02AB
:1002900019467B681B680A431A607B681B681A68EA
:1002A0007B685B7A19467B681B680A431A607B6827
:1002B0001B681A687B681B7A5B0019467B681B68A1
:1002C0000A431A607B681B681A687B689B7A5B022A
:1002D00019467B681B680A431A600123FB7301E01F
:1002E0000223FB73FB7B18461437BD4680BC704766
:1002F0000010024080B487B000AFF860B9607A6047
:100300000023FB75FB68002B32D0BB68002B2FD07D
:1003100028E000BFFB689B685B0803F00103002B2B
:10032000F8D0FB681B68DB0A03F00103012B0ED138
:10033000BB681B881A46FB68DA607B68013B7B6000
:100340007B68013B7B60BB680133BB600AE0BB6834
:100350001B781A46FB68DA607B68013B7B60BB68F0
:100360000133BB607B68002BD3D10123FB7501E017
:100370000223FB75FB7D18461C37BD4680BC7047C9
:1003800080B485B000AF78600B46FB700023FB7330
:100390007B68002B12D0FB78012B06D17B681B6891
:1003A00043F040027B681A6005E07B681B6823F01D
:1003B00040027B681A600123FB7301E00223FB7398
:1003C000FB7B18461437BD4680BC704780B485B0AF
:1003D00000AF78600B46FB700023FB737B68002B3B
:1003E00012D0FB78012B06D17B681B6843F4807226
:1003F0007B681A6005E07B681B6823F480727B6869
:100400001A600123FB7301E00223FB73FB7B184698
:100410001437BD4680BC704780B500AF054B1B68E4
:100420009847054B5B69044A43F00103536100BFE1
:1004300080BD00BF1C0000200004014080B500AF5B
:10044000054B1B689847054B5B69044A43F0020360
:10045000536100BF80BD00BF2000002000040140A8
:1004600080B500AF054B1B689847054B5B69044A94
:1004700043F00403536100BF80BD00BF240000208F
:100480000004014080B500AF054B1B689847054B41
:100490005B69044A43F00803536100BF80BD00BF9D
:1004A000280000200004014080B500AF054B1B6808
:1004B0009847054B5B69044A43F01003536100BF42
:1004C00080BD00BF2C0000200004014080B483B038
:1004D00000AF0346FB80FB88802B42D0802B11DCD1
:1004E000082B36D0082B06DC022B2ED0042B2ED066
:1004F000012B28D047E0202B2FD0402B2FD0102BC2
:1005000029D040E0B3F5006F33D0B3F5006F09DCBC
:10051000B3F5007F29D0B3F5806F28D0B3F5807F85
:1005200021D030E0B3F5005F27D0B3F5005F03DCE6
:10053000B3F5805F1FD026E0B3F5804F1FD0B3F531
:10054000004F1ED01FE000231EE004231CE0082300
:100550001AE00C2318E0102316E0142314E01823EB
:1005600012E01C2310E000230EE004230CE008231B
:100570000AE00C2308E0102306E0142304E018230B
:1005800002E01C2300E0002318460C37BD4680BC67
:100590007047000080B485B000AF78600B46FB70F8
:1005A0000023FB737B68002B76D0FB78012B36D1C0
:1005B0007B683D4A934208D13C4B9B693B4A43F0E0
:1005C000040393610123FB7368E07B68384A93421C
:1005D00008D1364B9B69354A43F0080393610123E8
:1005E000FB735BE07B68334A934208D12F4B9B69D6
:1005F0002E4A43F0100393610123FB734EE07B68A6
:100600002D4A934208D1294B9B69284A43F0200385
:1006100093610123FB7341E00023FB733EE0FB7811
:10062000002B36D17B68204A934208D11F4B9B692F
:100630001E4A23F0040393610123FB732EE07B68C1
:100640001B4A934208D1194B9B69184A23F00803AF
:1006500093610123FB7321E07B68164A934208D122
:10066000124B9B69114A23F0100393610123FB7322
:1006700014E07B68104A934208D10C4B9B690B4AEB
:1006800023F0200393610123FB7307E00023FB7336
:1006900004E00023FB7301E00223FB73FB7B18469D
:1006A0001437BD4680BC704700080140001002406E
:1006B000000C0140001001400014014090B587B0CB
:1006C00000AF78600023FB757B689B88BB827B68EA
:1006D0009B79FB740023FB607B681B680121184633
:1006E000FFF758FF7B68002B00F09280BB8AFF2B3E
:1006F00002D87B681B6802E07B681B680433FB60E0
:10070000BB8A1846FFF7E2FE03461A460F239340C2
:10071000DA43FB681B681A40FB681A60FB7C072BF6
:1007200008D0FB7C062B05D0FB7C052B02D0FB7C84
:10073000042B17D1FB7C043B9A007B68DB7903F028
:100740000F0342EA0304BB8A1846FFF7BFFE0346C5
:1007500004FA03F2FB681B681A43FB681A60012362
:10076000FB7557E0FB7C012B02D0FB7C002B12D1E8
:10077000FB7C9B0003F00F04BB8A1846FFF7A6FE24
:10078000034604FA03F2FB681B681A43FB681A600D
:100790000123FB7539E0FB7C082B10D1BB8A18467E
:1007A000FFF794FE03461A46042303FA02F2FB689D
:1007B0001B681A43FB681A600123FB7525E0BB8A9E
:1007C0001846FFF783FE03461A46082303FA02F28F
:1007D000FB681B681A43FB681A60FB7C022B08D17C
:1007E0007B681B68D968BA8A7B681B680A43DA6031
:1007F00009E07B681B68DA68BB8ADB4319467B68C3
:100800001B680A40DA600123FB750123FB7501E0D8
:100810000223FB75FB7D18461C37BD4690BD0000CA
:1008200080B500AF0C4B1B6898470C4B1B78DBB2B4
:10083000002B0ED10A4B00225A60094B1B68084A54
:1008400023F002031360064B1B68054A23F00103E3
:10085000136000BF80BD00BF3800002030000020C2
:1008600010E000E080B582B000AF174B3B60022380
:10087000BB800423BB710123FB713B461846FFF785
:100880001DFF124B3B600423BB710123BB8020235F
:10089000BB803B461846FFF711FF8023BB803B46D9
:1008A0001846FFF70BFF4023BB803B461846FFF777
:1008B00005FF1023BB803B461846FFF7FFFE00BF35
:1008C0000837BD4680BD00BF000C01400008014054
:1008D00080B586B000AF0C4B3B600123BB71012398
:1008E0003B7100237B710123FB7100237B7200238A
:1008F0003B720123BB723B461846FFF773FC00BFF7
:100900001837BD4680BD00BF0030014080B584B0BF
:1009100000AF0E4A3B1D07CA83E80700FFF7A2FF9E
:10092000FFF7D6FF01210A48FFF750FD01210848D3
:10093000FFF726FD3B1D1846FFF71AFC02463B1D3C
:1009400019460348FFF7D6FCFEE700BF080A000877
:10095000003001400D488546AFF300800C480D493A
:100960000D4A002302E0D458C4500433C4188C420A
:10097000F9D30A4A0A4C002301E013600432A24270
:10098000FBD300F011F8FFF7C1FFFEE700280020BD
:1009900000000020000000201C0A000800000020C9
:1009A0003C000020FEE7000070B500250C4E0D4C09
:1009B000A41BA410A54209D100F01AF800250A4E84
:1009C0000A4CA41BA410A54205D170BD56F82530D1
:1009D00098470135EEE756F8253098470135F2E79C
:1009E000140A0008140A0008140A0008180A00086B
:1009F000F8B500BFF8BC08BC9E467047F8B500BF0C
:080A0000F8BC08BC9E467047DB
:0C0A080048656C6C6F204D6167656400F0
:040A14005501000880
:040A180031010008A0
:040000050800095591
:00000001FF
